:020000040800F2
:1000000000C00020C97C0008D96D0008E56D00081B
:10001000EB6D0008F16D0008F76D000800000000AE
:10002000000000000000000000000000FD6D00085E
:10003000096E000800000000156E0008216E00081F
:10004000117D0008117D0008117D0008117D000858
:10005000117D0008117D00082D6E0008117D00083B
:10006000117D0008117D0008117D0008117D000838
:10007000117D0008117D0008117D0008117D000828
:10008000117D0008117D0008117D0008117D000818
:10009000117D0008117D0008117D00083B6E0008ED
:1000A000117D0008117D0008117D0008117D0008F8
:1000B000117D0008496E0008117D0008117D0008BF
:1000C000117D0008117D0008117D0008117D0008D8
:1000D000117D00085D6E0008117D0008117D00088B
:1000E000716E0008117D0008117D0008117D000867
:1000F000117D0008117D0008117D0008117D0008A8
:10010000117D0008117D0008117D0008117D000897
:10011000117D0008117D0008117D0008117D000887
:10012000117D0008117D0008117D0008117D000877
:1001300000000000000000000000000000000000BF
:1001400000000000000000000000000000000000AF
:10015000000000000000000000000000000000009F
:10016000000000000000000000000000000000008F
:10017000000000000000000000000000000000007F
:10018000000000000000000000000000000000006F
:10019000000000000000000000000000000000005F
:1001A000000000000000000000000000000000004F
:1001B000000000000000000000000000000000003F
:1001C000000000000000000000000000000000002F
:1001D000000000000000000000000000000000001F
:0401E0005FF8E0F1F3
:1001E80010B5054C237833B9044B13B10448AFF369
:1001F80000800123237010BD78000020000000005B
:1002080030B0000808B5034B1BB103490348AFF3EE
:10021800008008BD000000007C00002030B000080D
:10022800034613F8012B002AFBD1181A013870472E
:1002380081F0004102E000BF83F0004330B54FEA8F
:1002480041044FEA430594EA050F08BF90EA020FFC
:100258001FBF54EA000C55EA020C7FEA645C7FEA8F
:10026800655C00F0E2804FEA5454D4EB5555B8BFB2
:100278006D420CDD2C4480EA020281EA030382EA23
:10028800000083EA010180EA020281EA0303362DB5
:1002980088BF30BD11F0004F4FEA01314FF4801C88
:1002A8004CEA113102D0404261EB410113F0004F9A
:1002B8004FEA03334CEA133302D0524263EB430351
:1002C80094EA050F00F0A780A4F10104D5F1200EEF
:1002D8000DDB02FA0EFC22FA05F2801841F100014A
:1002E80003FA0EF2801843FA05F359410EE0A5F11E
:1002F80020050EF1200E012A03FA0EFC28BF4CF04F
:10030800020C43FA05F3C01851EBE37101F0004504
:1003180007D54FF0000EDCF1000C7EEB00006EEB11
:100328000101B1F5801F1BD3B1F5001F0CD349089B
:100338005FEA30004FEA3C0C04F101044FEA4452F2
:1003480012F5800F80F09A80BCF1004F08BF5FEA79
:10035800500C50F1000041EB045141EA050130BD59
:100368005FEA4C0C404141EB010111F4801FA4F1FC
:100378000104E9D191F0000F04BF01460020B1FA51
:1003880081F308BF2033A3F10B03B3F120020CDA89
:100398000C3208DD02F1140CC2F10C0201FA0CF067
:1003A80021FA02F10CE002F11402D8BFC2F1200CCC
:1003B80001FA02F120FA0CFCDCBF41EA0C01904082
:1003C800E41AA2BF01EB0451294330BD6FEA0404CB
:1003D8001F3C1CDA0C340EDC04F11404C4F12002B6
:1003E80020FA04F001FA02F340EA030021FA04F3C8
:1003F80045EA030130BDC4F10C04C4F1200220FA1F
:1004080002F001FA04F340EA0300294630BD21FA5C
:1004180004F0294630BD94F0000F83F4801306BF22
:1004280081F480110134013D4EE77FEA645C18BF16
:100438007FEA655C29D094EA050F08BF90EA020FAD
:1004480005D054EA000C04BF1946104630BD91EAA5
:10045800030F1EBF0021002030BD5FEA545C05D1A8
:100468004000494128BF41F0004130BD14F58004E7
:100478003CBF01F5801130BD01F0004545F0FE415B
:1004880041F470014FF0000030BD7FEA645C1ABF90
:10049800194610467FEA655C1CBF0B46024650EAC7
:1004A800013406BF52EA033591EA030F41F40021F3
:1004B80030BD00BF90F0000F04BF0021704730B579
:1004C8004FF4806404F132044FF000054FF000014E
:1004D80050E700BF90F0000F04BF0021704730B50F
:1004E8004FF4806404F1320410F0004548BF4042E4
:1004F8004FF000013EE700BF42004FEAE2014FEA39
:1005080031014FEA02701FBF12F07F4393F07F4F13
:1005180081F06051704732F07F4208BF704793F016
:100528007F4F04BF41F40021704730B54FF4607429
:1005380001F0004521F000411CE700BF50EA01022C
:1005480008BF704730B54FF000050AE050EA0102D5
:1005580008BF704730B511F0004502D5404261EB45
:1005680041014FF4806404F132045FEA915C3FF486
:10057800D8AE4FF003025FEADC0C18BF03325FEA23
:10058800DC0C18BF033202EBDC02C2F1200300FAD4
:1005980003FC20FA02F001FA03FE40EA0E0021FAF9
:1005A80002F11444BDE600BF70B54FF0FF0C4CF4E7
:1005B800E06C1CEA11541DBF1CEA135594EA0C0F99
:1005C80095EA0C0F00F0DEF82C4481EA030621EAD4
:1005D8004C5123EA4C5350EA013518BF52EA03350F
:1005E80041F4801143F4801338D0A0FB02CE4FF0C1
:1005F8000005E1FB02E506F00042E0FB03E54FF0F1
:100608000006E1FB03569CF0000F18BF4EF0010EE8
:10061800A4F1FF04B6F5007F64F5407404D25FEAE4
:100628004E0E6D4146EB060642EAC62141EA555197
:100638004FEAC52040EA5E504FEACE2EB4F1FD0CD9
:1006480088BFBCF5E06F1ED8BEF1004F08BF5FEA57
:10065800500E50F1000041EB045170BD06F0004609
:1006680046EA010140EA020081EA0301B4EB5C04B6
:10067800C2BFD4EB0C0541EA045170BD41F48011AE
:100688004FF0000E013C00F3AB8014F1360FDEBFD3
:10069800002001F0004170BDC4F10004203C35DAAF
:1006A8000C341BDC04F11404C4F1200500FA05F332
:1006B80020FA04F001FA05F240EA020001F00042D3
:1006C80021F0004110EBD37021FA04F642EB060149
:1006D8005EEA430E08BF20EAD37070BDC4F10C0473
:1006E800C4F1200500FA04F320FA05F001FA04F237
:1006F80040EA020001F0004110EBD37041F1000123
:100708005EEA430E08BF20EAD37070BDC4F120052D
:1007180000FA05F24EEA020E20FA04F301FA05F295
:1007280043EA020321FA04F001F0004121FA04F23D
:1007380020EA020000EBD3705EEA430E08BF20EA0D
:10074800D37070BD94F0000F0FD101F00046400047
:1007580041EB010111F4801F08BF013CF7D041EAC9
:10076800060195F0000F18BF704703F000465200CD
:1007780043EB030313F4801F08BF013DF7D043EA9E
:100788000603704794EA0C0F0CEA135518BF95EA54
:100798000C0F0CD050EA410618BF52EA4306D1D1DB
:1007A80081EA030101F000414FF0000070BD50EAFA
:1007B800410606BF1046194652EA430619D094EA84
:1007C8000C0F02D150EA013613D195EA0C0F05D16E
:1007D80052EA03361CBF104619460AD181EA0301C2
:1007E80001F0004141F0FE4141F470014FF000007A
:1007F80070BD41F0FE4141F4780170BD70B54FF015
:10080800FF0C4CF4E06C1CEA11541DBF1CEA135594
:1008180094EA0C0F95EA0C0F00F0A7F8A4EB050476
:1008280081EA030E52EA03354FEA013100F088806D
:100838004FEA03334FF0805545EA131343EA126336
:100848004FEA022245EA111545EA10654FEA0026EB
:100858000EF000419D4208BF964244F1FD0404F5A4
:10086800407402D25B084FEA3202B61A65EB030500
:100878005B084FEA32024FF480104FF4002CB6EBBD
:10088800020E75EB030E22BFB61A754640EA0C003D
:100898005B084FEA3202B6EB020E75EB030E22BF7D
:1008A800B61A754640EA5C005B084FEA3202B6EBBE
:1008B800020E75EB030E22BFB61A754640EA9C007D
:1008C8005B084FEA3202B6EB020E75EB030E22BF4D
:1008D800B61A754640EADC0055EA060E18D04FEA0B
:1008E800051545EA16754FEA06164FEAC30343EAAB
:1008F80052734FEAC2025FEA1C1CC0D111F4801F78
:100908000BD141EA00014FF000004FF0004CB6E770
:1009180011F4801F04BF01430020B4F1FD0C88BF0F
:10092800BCF5E06F3FF6AFAEB5EB030C04BFB6EB1A
:10093800020C5FEA500C50F1000041EB045170BD0D
:100948000EF0004E4EEA113114EB5C04C2BFD4EB3A
:100958000C0541EA045170BD41F480114FF0000EBE
:10096800013C90E645EA060E8DE60CEA135594EA3A
:100978000C0F08BF95EA0C0F3FF43BAF94EA0C0F3D
:100988000AD150EA01347FF434AF95EA0C0F7FF4B2
:1009980025AF104619462CE795EA0C0F06D152EA06
:1009A80003353FF4FDAE1046194622E750EA4106EA
:1009B80018BF52EA43067FF4C5AE50EA41047FF4FB
:1009C8000DAF52EA43057FF4EBAE12E74A0011D2AD
:1009D80012F5001211D20DD56FF47873B3EB625291
:1009E8000ED44FEAC12343F0004343EA505323FA9D
:1009F80002F070474FF00000704750EA013002D112
:100A08004FF0FF3070474FF00000704780B483B05C
:100A180000AF114B114A1A60114B124A1A60124B5F
:100A2800124A1A600023FB710EE0FA790B4913464B
:100A38005B0013449B000B441A4600231360536069
:100A48009360FB790133FB71FB79022BEDD900BF71
:100A58000C37BD4680BC7047B0000020B8000020AD
:100A6800AC000020C4000020B4000020D00000200A
:100A780080B584B000AF0023FB731DE0F97BFA7BDF
:100A880054480B465B000B449B00034418785149BB
:100A980013465B0013449B000B44013302461A7053
:100AA800FA7B4C4913465B0013449B000B4400221D
:100AB8001A70FB7B0133FB73FB7B022BDED92021F1
:100AC800454807F027FD0346002B0CBF01230023F0
:100AD800DBB27B734FF40041404807F01BFD03462F
:100AE800002B0CBF01230023DBB23B7301213B48E1
:100AF80007F010FD0346FB72394B1B787A7B9A424C
:100B080004D1384B1B687A7B1A7005E0354B1A689C
:100B1800344B1B6852781A70334B1B783A7B9A42D5
:100B280004D1324B1B683A7B1A7005E02F4B1A68C8
:100B38002E4B1B6852781A702D4B1B78FA7A9A4202
:100B480004D12C4B1B68FA7A1A7005E0294B1A68F5
:100B5800284B1B6852781A70214A7B7B1370224AF3
:100B68003B7B1370224AFB7A13700023BB7329E086
:100B7800BA7B13465B0013449B001A46154B13447B
:100B88007B607B681B78012B0AD17B685B78002B24
:100B980006D17B685B68002B02D07B685B6898474E
:100BA8007B681B78002B0AD17B685B78012B06D108
:100BB8007B689B68002B02D07B689B689847BB7B4F
:100BC8000133BB73BB7B022BD2D900BF1037BD46A4
:100BD80080BD00BFB800002000100140000801409F
:100BE80094000020AC00002095000020B4000020F4
:100BF80096000020B000002080B500AF06F020FA73
:100C08000346002B0ED0012006F0B0FE064B93F9E8
:100C18000030DBB2013BDBB25AB2034B1A70002042
:100C280006F0A4FE00BF80BD6005002080B500AFBF
:100C380006F066FA0346002B0ED0012006F096FE59
:100C4800064B93F90030DBB20133DBB25AB2034BE7
:100C58001A70002006F08AFE00BF80BD60050020E3
:100C680080B483B000AF7860034A7B68136000BF2C
:100C78000C37BD4680BC7047DC00002080B400AF54
:100C8800074B4FF4FA721A60054B1B68054A13604C
:100C9800054B01221A6000BFBD4680BC704700BFEB
:100CA800DC000020F4000020E000002080B483B0C5
:100CB80000AF7860074B1B68642B06D94FF4FA72B3
:100CC8007B68B2FBF3F3034A136000BF0C37BD46E1
:100CD80080BC7047F400002080B500AF06F0D0FA61
:100CE8000346002B12D0012006F040FE084BDB78AB
:100CF80001335A4203F0030302F0030258BF534280
:100D0800DAB2034BDA70002006F030FE00BF80BD77
:100D18006005002080B485B000AF274B9B781A4649
:100D280013461B0113445B00244A1344BB60002391
:100D3800FB7337E0204BDB781A46FB7BB9689200DF
:100D48000A44134493F90030DAB21B4B93F900308C
:100D5800DBB21344DBB2FB71174BDB781A46FB7B23
:100D6800B96892000A441344103393F90030DAB298
:100D7800114B93F90130DBB21344DBB2BB7197F925
:100D8800062097F907100E4813469B0013445B0092
:100D98000B4410F82330002B01D1012306E0FB7B24
:100DA8000133FB73FB7B032BC4D90023184614378C
:100DB800BD4680BC704700BF60050020700400205D
:100DC800F800002080B582B000AF06F0F9F90346BC
:100DD800002B0FD0012006F0C9FD2E4B93F90130EE
:100DE800DBB2013BDBB25AB22A4B5A70002006F044
:100DF800BDFD4AE006F0B6FA00F008F90346FB71BB
:100E0800FB79002B1ED0244B5A89FB799BB21946DB
:100E180089000B445B009BB213449AB21E4B5A8163
:100E28001D4B5B891D4AA2FB03231B099BB201339F
:100E38001A461B4B1A60184B5B89184606F06EFE63
:100E480006F052FD012006F0E1FD012006F022FE29
:100E580006F0E6FAFFF75EFF0346002B13D10020E9
:100E680006F084FD002006F0D1FD002006F012FEF9
:100E78000B4B1B681846FFF719FF0A4B1B681846EF
:100E8800FFF7EEFE01E000F00FF800BF0837BD469F
:100E980080BD00BF60050020E800002089888888A0
:100EA800E0000020F400002080B500AF08F0E6FF65
:100EB8000346184608F0BEFF00F020F900F046F996
:100EC80006F0E8FA0A4B00225A81FFF7D7FE002005
:100ED80005F0B4FB06F012FC002006F047FD0020E8
:100EE80006F094FD002006F0D5FD00BF80BD00BFD0
:100EF800E800002080B588B000AF07F11003002299
:100F08001A605A609A60DA603C4B9B693B4A43F02E
:100F180020039361394B9B6903F02003FB60FB6856
:100F2800364B9B69354A43F004039361334B9B6905
:100F380003F00403BB60BB68304B9B692F4A43F046
:100F4800100393612D4B9B6903F010037B607B6852
:100F580000224FF480712A4807F0F3FA01233B611D
:100F6800284B7B610223BB6107F110031946244813
:100F780007F066F920233B61224B7B610123BB61AB
:100F880007F110031946204807F05AF94FF4807307
:100F98003B6101237B610023BB610223FB6107F1F5
:100FA80010031946164807F04BF94FF400433B610C
:100FB800144B7B610123BB6107F1100319461048EC
:100FC80007F03EF900220021062006F0FAFF06206D
:100FD80007F013F800220021172006F0F2FF17206F
:100FE80007F00BF800220021282006F0EAFF28204D
:100FF80007F003F800BF2037BD4680BD001002404F
:1010080000080140000011100010014080B582B0B6
:1010180000AF00237B711423BB712DE00023FB710B
:101028001EE097F9062097F90710184813469B0009
:1010380013445B000B4410F82330002B15D197F9AB
:101048000730092B06D1BB79184600F021F87B79C7
:1010580001337B7197F90730DBB20133DBB2FB71E7
:1010680097F90730092BDCDD00E000BF97F906305F
:10107800DBB2013BDBB2BB7197F90630002BCDDA4E
:101088007B7918460837BD4680BD00BFF8000020B0
:10109800B0B485B000AF0346FB71FB79BB7322E0A7
:1010A8000023FB7319E0BB7B5A1CF87BB97BFC7BE4
:1010B800114D0B469B000B445B0019190E4C13464F
:1010C8009B0013445B001A188B002B4492002244A7
:1010D80012681A60FB7B0133FB73FB7B092BE2D997
:1010E800BB7B0133BB73BB7B132BD9D900BF143730
:1010F800BD46B0BC704700BFF800002080B483B084
:1011080000AF0023BB7116E00023FB710DE0BA7934
:10111800F9790D4813469B0013445B000B440122E8
:1011280000F82320FB790133FB71FB79092BEED9F9
:10113800BB790133BB71BB79132BE5D900BF0C37E1
:10114800BD4680BC704700BFF800002080B483B063
:1011580000AF0023BB7113E00023FB710AE0BA79EA
:10116800FB790B4992001344012201F82320FB79F3
:101178000133FB71FB79032BF1D9BB790133BB71C7
:10118800BB79032BE8D900BF0C37BD4680BC70473C
:101198001804002080B483B000AF0346FB800D4BD9
:1011A8004FF480725A610B4B4FF400725A610A4A2D
:1011B800FB88D360074B80225A61064B80221A6154
:1011C800044B4FF400721A6100BF0C37BD4680BC57
:1011D800704700BF00100140000C014080B483B08C
:1011E80000AF0346FB800D4B4FF480721A610B4B26
:1011F8004FF400725A610A4AFB88D360074B802279
:101208005A61064B80221A61044B4FF400721A612E
:1012180000BF0C37BD4680BC704700BF00100140BE
:10122800000C014080B582B000AF1D4B4FF08832F2
:101238001A601B4B4FF088325A60194B0022DA6053
:10124800184B4FF480721A61164B4FF400725A61B2
:10125800144B40225A61144B9B8848F689129342DA
:1012680002D1012006F0B4FD0D4B9B68FB800D4BAD
:1012780040221A610B4B4FF400721A61084B4FF071
:1012880033321A60064B4FF033325A60044B4FF634
:10129800FF72DA60FB8818460837BD4680BD00BF7C
:1012A800000C0140001001405804002080B582B0B5
:1012B80000AF03460A46FB801346BB80FB881846EE
:1012C800FFF768FF0C4B4FF480721A610A4B4FF41A
:1012D80000725A61094ABB88D360074B80225A6161
:1012E800054B80221A61044B4FF400721A6100BF4B
:1012F8000837BD4680BD00BF00100140000C01400A
:1013080080B582B000AF0346FB80FB881846FFF724
:1013180041FFFFF787FF034618460837BD4680BDE3
:1013280080B500AF034B1B891846FFF733FF00BF9A
:1013380080BD00BF5804002080B582B000AF0346CE
:101348000A46FB801346BB80734B9B8849F24132A7
:10135800934205D0704B9B8845F21032934264D17A
:101368006D4B5B891846FFF715FF6C4B4FF4807285
:101378001A616A4B4FF400725A61FB881B0A9AB2D1
:10138800674BDA60654B80225A61644B80221A6190
:10139800624B4FF400721A61604B4FF480721A610D
:1013A8005E4B4FF400725A61FB885D4ADBB2D36032
:1013B8005A4B80225A61594B80221A61574B4FF47D
:1013C80000721A61544B9B891846FFF7E3FE534B92
:1013D8004FF480721A61514B4FF400725A61BB8806
:1013E8001B0A9AB24E4BDA604C4B80225A614B4B27
:1013F80080221A61494B4FF400721A61474B4FF42F
:1014080080721A61454B4FF400725A61BB88444A96
:10141800DBB2D360414B80225A61404B80221A6173
:101428003E4B4FF400721A6148E23B4B9B8846F6EC
:101438000402934276D1384B9B79012B06D1364B67
:101448001A88FB88D31A9BB2013BFB80324B5B891D
:101458001846FFF79FFE314B4FF480721A612F4BED
:101468004FF400725A61FB881B0A9AB22C4BDA605F
:101478002A4B80225A61294B80221A61274B4FF44C
:1014880000721A61254B4FF480721A61234B4FF496
:1014980000725A61FB88224ADBB2D3601F4B80225C
:1014A8005A611E4B80221A611C4B4FF400721A615C
:1014B800194B9B891846FFF76DFE184B4FF4807245
:1014C8001A61164B4FF400725A61BB881B0A9AB214
:1014D800134BDA60114B80225A61104B80221A613B
:1014E8000E4B4FF400721A610C4B4FF480721A6164
:1014F8000A4B4FF400725A61BB88094ADBB2D360C9
:10150800064B80225A61054B80221A61034B4FF427
:1015180000721A61D2E100BF580400200010014097
:10152800000C0140994B9B8841F66312934240F0AE
:101538003381964B9B79002B63D1944B1A88FB8897
:10154800D31A9BB2013BFB80904B5B891846FFF78F
:1015580021FE8F4B4FF480721A618D4B4FF400724D
:101568005A618C4B0022DA60894B80225A61884B81
:1015780080221A61864B4FF400721A61844B4FF433
:1015880080721A61824B4FF400725A61814B0022BB
:10159800DA607F4B80225A617D4B80221A617C4B36
:1015A8004FF400721A617A4B4FF480721A61784BCB
:1015B8004FF400725A61FB881B0A9AB2754BDA60C5
:1015C800734B80225A61724B80221A61704B4FF420
:1015D80000721A616E4B4FF480721A616C4B4FF4B3
:1015E80000725A61FB886B4ADBB2D360684B802279
:1015F8005A61674B80221A61654B4FF400721A6179
:1016080061E0624B5B891846FFF7C4FD604B4FF4FD
:1016180080721A615E4B4FF400725A61FB881B0A94
:101628009AB25C4BDA605A4B80225A61584B80223E
:101638001A61574B4FF400721A61554B4FF4807280
:101648001A61534B4FF400725A61FB88514ADBB25E
:10165800D3604F4B80225A614D4B80221A614C4B0C
:101668004FF400721A614A4B4FF480721A61484B6A
:101678004FF400725A61454B1B88013B1A12454BC7
:10168800DA60434B80225A61414B80221A61404BF9
:101698004FF400721A613E4B4FF480721A613C4B52
:1016A8004FF400725A61394B1B88013B394ADBB24F
:1016B800D360374B80225A61354B80221A61344BF4
:1016C8004FF400721A61314B9B891846FFF762FD8F
:1016D8002F4B4FF480721A612D4B4FF400725A61F0
:1016E800BB881B0A9AB22B4BDA60294B80225A61BD
:1016F800274B80221A61264B4FF400721A61244B43
:101708004FF480721A61224B4FF400725A61BB8801
:10171800204ADBB2D3601E4B80225A611C4B8022C8
:101728001A611B4B4FF400721A61194B4FF4807207
:101738001A61174B4FF400725A61144B5B88013BD6
:101748001A12144BDA60124B80225A61104B802215
:101758001A610F4B4FF400721A610D4B4FF48072EF
:101768001A610B4B4FF400725A61084B5B88013BBE
:10177800084ADBB2D360064B80225A61044B8022B0
:101788001A61034B4FF400721A6197E05804002065
:1017980000100140000C01404A4B9B8845F2105252
:1017A800934272D1474B5B891846FFF7F3FC464BCF
:1017B8004FF480721A61444B4FF400725A61FB88EF
:1017C8001B0A9AB2414BDA603F4B80225A613E4B6A
:1017D80080221A613C4B4FF400721A61394B5B89C5
:1017E80001339BB21846FFF7D5FC374B4FF4807294
:1017F8001A61354B4FF400725A61FB88334ADBB2E9
:10180800D360314B80225A612F4B80221A612E4BB4
:101818004FF400721A612B4B9B891846FFF7BAFCEC
:10182800294B4FF480721A61274B4FF400725A61AA
:10183800BB881B0A9AB2254BDA60234B80225A6177
:10184800214B80221A61204B4FF400721A611D4B04
:101858009B8901339BB21846FFF79CFC1A4B4FF447
:1018680080721A61184B4FF400725A61BB88174A8C
:10187800DBB2D360144B80225A61134B80221A6169
:10188800114B4FF400721A6118E00E4B9B79012B33
:1018980006D10C4B1A88FB88D31A9BB2013BFB80FC
:1018A800084B5B89FA8811461846FFF7FFFC054B81
:1018B8009B89BA8811461846FFF7F8FC00BF08371D
:1018C800BD4680BD5804002000100140000C0140B6
:1018D80080B584B000AF0346FB710023FB81002371
:1018E800BB81784B9B79012B0BD1764B9B8846F6B5
:1018F8000402934205D0734B9B8841F663129342CE
:1019080009D1704B9B79002B34D16E4B9B8841F6E3
:10191800631293422ED1FB79072B2BD801A252F8E0
:1019280023F000BF4D190008531900085919000881
:101938005F190008651900086B190008711900087B
:10194800771900080623FB7114E00723FB7111E0E7
:101958000423FB710EE00523FB710BE00123FB71EF
:1019680008E00023FB7105E00323FB7102E002237A
:10197800FB7100BF534B9B8849F24132934218D008
:10198800504B9B8846F60402934212D04D4B9B88DD
:1019980045F2103293420CD04A4B9B8845F21052C4
:1019A800934206D0474B9B8841F66312934240F01E
:1019B8005082FB79072B36D801A252F823F000BFDA
:1019C8002F1A0008E9190008F3190008FD19000882
:1019D800071A0008111A00081B1A0008251A00081F
:1019E800FB8943F08003FB811DE0FB8943F0400342
:1019F800FB8118E0FB8943F0C003FB8113E0FB89FE
:101A080043F02003FB810EE0FB8943F06003FB8178
:101A180009E0FB8943F0A003FB8104E0FB8943F064
:101A2800E003FB8100BF274B9B8845F2105293428D
:101A380003D14FF45853BB8101E03623BB81214BBE
:101A48009B8845F2103293420FD01E4B9B8845F27B
:101A58001052934209D01B4B9B8841F66312934264
:101A680003D0FB8943F00803FB81164B9B8846F69D
:101A78000402934203D1FB8943F00203FB81FA89F4
:101A8800BB8911461846FFF711FC0E4B9B8841F69F
:101A98006312934228D0FB8903F02003002B13D054
:101AA800084B1A88074B5B889A421DD2054B1B8846
:101AB8007B81044B5A88034B1A80024A7B895380E6
:101AC80012E000BF580400207F4B1A887E4B5B88C9
:101AD8009A4209D97C4B1B887B817B4B5A887A4B6D
:101AE8001A80794A7B895380774B9B8845F210523C
:101AF800934240F0EF80744B5B891846FFF74AFB2E
:101B0800724B4FF480721A61704B4FF400725A6135
:101B18006F4B0022DA606D4B80225A616B4B80223A
:101B28001A616A4B4FF400721A61674B5B89013383
:101B38009BB21846FFF72EFB644B4FF480721A6174
:101B4800624B4FF400725A61614B0022DA605F4BBE
:101B580080225A615D4B80221A615C4B4FF40072FF
:101B68001A61594B5B8902339BB21846FFF712FB87
:101B7800564B4FF480721A61544B4FF400725A61FD
:101B8800514B1B88013B1A12514BDA604F4B802294
:101B98005A614E4B80221A614C4B4FF400721A6105
:101BA800494B5B8903339BB21846FFF7F3FA474B5F
:101BB8004FF480721A61454B4FF400725A61424BE0
:101BC8001B88013B424ADBB2D360404B80225A61FA
:101BD8003E4B80221A613D4B4FF400721A613A4B1A
:101BE8009B891846FFF7D6FA384B4FF480721A6172
:101BF800364B4FF400725A61354B0022DA60334B92
:101C080080225A61314B80221A61304B4FF40072A6
:101C18001A612D4B9B8901339BB21846FFF7BAFA1C
:101C28002A4B4FF480721A61284B4FF400725A61A4
:101C3800274B0022DA60254B80225A61234B8022F1
:101C48001A61224B4FF400721A611F4B9B890233B1
:101C58009BB21846FFF79EFA1C4B4FF480721A612C
:101C68001A4B4FF400725A61174B5B88013B1A12EA
:101C7800174BDA60154B80225A61144B80221A6187
:101C8800124B4FF400721A610F4B9B8903339BB2BE
:101C98001846FFF77FFA0D4B4FF480721A610B4B11
:101CA8004FF400725A61084B5B88013B084ADBB26B
:101CB800D360064B80225A61044B80221A61034B81
:101CC8004FF400721A610AE1580400200010014024
:101CD800000C0140844B5B891846FFF75BFA834B85
:101CE8004FF480721A61814B4FF400725A61804B35
:101CF8000022DA607D4B80225A617C4B80221A6177
:101D08007A4B4FF400721A61784B4FF480721A6163
:101D1800764B4FF400725A61754B0022DA60734BB0
:101D280080225A61714B80221A61704B4FF4007205
:101D38001A616E4B4FF480721A616C4B4FF400724B
:101D48005A61694B1B88013B1A12694BDA60674B71
:101D580080225A61654B80221A61644B4FF40072ED
:101D68001A61624B4FF480721A61604B4FF4007233
:101D78005A615D4B1B88013B5D4ADBB2D3605B4B0C
:101D880080225A61594B80221A61584B4FF40072D5
:101D98001A61554B9B891846FFF7FCF9534B4FF4D2
:101DA80080721A61514B4FF400725A61504B0022F5
:101DB800DA604E4B80225A614C4B80221A614B4BA1
:101DC8004FF400721A61494B4FF480721A61474B05
:101DD8004FF400725A61464B0022DA60434B80226E
:101DE8005A61424B80221A61404B4FF400721A61CB
:101DF8003E4B4FF480721A613C4B4FF400725A61AB
:101E0800394B5B88013B1A12394BDA60374B802219
:101E18005A61364B80221A61344B4FF400721A61B2
:101E2800324B4FF480721A61304B4FF400725A6192
:101E38002D4B5B88013B2E4ADBB2D3602B4B8022B3
:101E48005A612A4B80221A61284B4FF400721A619A
:101E580045E0FB79072B36D801A252F823F000BFE2
:101E6800891E0008931E00089D1E0008CF1E00084A
:101E7800A71E0008B11E0008BB1E0008C51E0008EA
:101E8800FB8943F03003FB811DE0FB8943F010031D
:101E9800FB8118E0FB8943F02003FB8113E0FB89F9
:101EA80043F03803FB810EE0FB8943F02803FB81F4
:101EB80009E0FB8943F01803FB8104E0FB8943F048
:101EC8000803FB8100BF0323BB81FB8943F48053D4
:101ED800FB81FA89BB8911461846FFF7E7F900BF6D
:101EE8001037BD4680BD00BF5804002000100140D7
:101EF800000C014080B582B000AF03460A46FB8063
:101F08001346BB80BA88FB8811461846FFF714FAB7
:101F1800FFF706FA0C4B4FF480721A610A4B4FF424
:101F280000725A61094B1A88094BDA60064B802205
:101F38005A61054B80221A61034B4FF400721A61F3
:101F480000BF0837BD4680BD001001409800002042
:101F5800000C014080B582B000AF0346FB800B4601
:101F6800BB8013467B80754B9B8849F24132934274
:101F780005D0724B9B8845F21032934264D16F4B67
:101F88005B891846FFF706F96D4B4FF480721A61AA
:101F98006B4B4FF400725A61FB881B0A9AB2694B6B
:101FA800DA60674B80225A61654B80221A61644B64
:101FB8004FF400721A61624B4FF480721A61604BE1
:101FC8004FF400725A61FB885E4ADBB2D3605C4B07
:101FD80080225A615A4B80221A61594B4FF4007281
:101FE8001A61564B9B891846FFF7D4F8544B4FF4A7
:101FF80080721A61524B4FF400725A61BB881B0AF7
:102008009AB2504BDA604E4B80225A614C4B802278
:102018001A614B4B4FF400721A61494B4FF48072AE
:102028001A61474B4FF400725A61BB88454ADBB2CC
:10203800D360434B80225A61414B80221A61404B46
:102048004FF400721A61E6E13C4B9B8845F210524E
:10205800934279D1394B5B891846FFF79BF8384B87
:102068004FF480721A61364B4FF400725A61FB8844
:102078001B0A9AB2334BDA60314B80225A61304BDB
:1020880080221A612E4B4FF400721A612B4B5B8928
:1020980001339BB21846FFF77DF8294B4FF4807245
:1020A8001A61274B4FF400725A61FB88254ADBB24C
:1020B800D360234B80225A61214B80221A61204B26
:1020C8004FF400721A611D4B9B891846FFF762F89E
:1020D8001B4B4FF480721A61194B4FF400725A610E
:1020E800BB881B0A9AB2174BDA60154B80225A61DB
:1020F800134B80221A61124B4FF400721A610F4B76
:102108009B8901339BB21846FFF744F80C4B4FF4F8
:1021180080721A610A4B4FF400725A61BB88094AEF
:10212800DBB2D360064B80225A61054B80221A61CC
:10213800034B4FF400721A616DE100BF5804002090
:1021480000100140000C0140684B9B8841F6631267
:10215800934240F0D180654B9B79002B06D1634BAD
:102168001A88FB88D31A9BB2013BFB805F4B5B89C3
:102178001846FFF70FF85E4B4FF480721A615C4BFC
:102188004FF400725A61FB881B0A9AB2594BDA6005
:10219800574B80225A61564B80221A61544B4FF498
:1021A80000721A61524B4FF480721A61504B4FF40F
:1021B80000725A61FB884F4ADBB2D3604C4B8022D5
:1021C8005A614B4B80221A61494B4FF400721A61D5
:1021D800474B4FF480721A61454B4FF400725A61B5
:1021E800FB881B0A9AB2434BDA60414B80225A6142
:1021F8003F4B80221A613E4B4FF400721A613C4BF0
:102208004FF480721A613A4B4FF400725A61FB889E
:10221800384ADBB2D360364B80225A61344B802275
:102228001A61334B4FF400721A61304B9B89184680
:10223800FEF7B0FF2E4B4FF480721A612C4B4FF40F
:1022480000725A61BB881B0A9AB22A4BDA60284B83
:1022580080225A61264B80221A61254B4FF4007266
:102268001A61234B4FF480721A61214B4FF40072AC
:102278005A61BB881F4ADBB2D3601D4B80225A616A
:102288001B4B80221A611A4B4FF400721A61184BCB
:102298004FF480721A61164B4FF400725A61BB8872
:1022A8001B0A9AB2134BDA60114B80225A61104B09
:1022B80080221A610E4B4FF400721A610C4B4FF4D6
:1022C80080721A610A4B4FF400725A61BB88094A3E
:1022D800DBB2D360064B80225A61054B80221A611B
:1022E800034B4FF400721A6195E000BF58040020B8
:1022F80000100140000C01405E4B9B8846F604022A
:1023080093426FD15B4B9B79012B06D1594B1A88AD
:10231800FB88D31A9BB2013BFB80564B5B8918465E
:10232800FEF738FF544B4FF480721A61524B4FF44A
:1023380000725A61FB881B0A9AB2504BDA604E4B06
:1023480080225A614C4B80221A614B4B4FF4007229
:102358001A61494B4FF480721A61474B4FF400726F
:102368005A61FB88454ADBB2D360434B80225A61ED
:10237800414B80221A61404B4FF400721A613D4B69
:102388009B891846FEF706FF3B4B4FF480721A6193
:10239800394B4FF400725A61BB881B0A9AB2374B0B
:1023A800DA60354B80225A61334B80221A61324BF6
:1023B8004FF400721A61304B4FF480721A612E4B41
:1023C8004FF400725A61BB882C4ADBB2D3602A4BA7
:1023D80080225A61284B80221A61274B4FF40072E1
:1023E8001A6118E0234B9B79012B06D1214B1A88DF
:1023F800FB88D31A9BB2013BFB801E4B5B89FA8892
:1024080011461846FEF752FF1A4B9B89BA881146A7
:102418001846FEF74BFF184B4FF480725A61164B63
:102428004FF400725A61134B1A89144BDA60124B3D
:1024380080225A61104B80221A610F4B4FF40072B0
:102448001A610D4B4FF480721A610B4B4FF40072F6
:102458005A610A4A7B88D360074B80225A61064B2F
:1024680080221A61044B4FF400721A6100BF0837CA
:10247800BD4680BD5804002000100140000C0140FA
:1024880090B583B000AF0346FB71BE20FEF782FE15
:102498004B4B4FF480721A61494B4FF400725A61EA
:1024A800484B0522DA60464B80225A61444B802211
:1024B8001A61434B4FF400721A61414B4FF480721A
:1024C8001A613F4B4FF400725A61FB791846FEF7C8
:1024D80001F839A3D3E90023FEF766F803460C4652
:1024E8001A462346374C10461946FEF76FFA03463C
:1024F800E360334B80225A61314B80221A61304BA2
:102508004FF400721A612E4B4FF480721A612C4BF3
:102518004FF400725A612B4B0122DA60284B80225B
:102528005A61274B80221A61254B4FF400721A61B9
:10253800234B4FF480721A61214B4FF400725A6199
:10254800204BFF22DA601E4B80225A611C4B8022EE
:102558001A611B4B4FF400721A61194B4FF48072C9
:102568001A61174B4FF400725A61164B0022DA6059
:10257800134B80225A61124B80221A61104B4FF480
:1025880000721A610E4B4FF480721A610C4B4FF4B3
:1025980000725A610B4B0022DA60094B80225A61A3
:1025A800074B80221A61064B4FF400721A6100BF74
:1025B8000C37BD4690BD00BF666666666666044019
:1025C80000100140000C014080B582B000AF034606
:1025D800FB71FB79002B77D1804B00229A717F4BDE
:1025E800F0221A807D4B4FF4A0725A807B4B9B8857
:1025F80049F2413293420BD0784B9B8846F604024D
:10260800934205D0754B9B8845F2103293421ED1F8
:10261800724B2C221A81714B2A225A816F4B2B2222
:102628009A816E4B9B8846F60402934206D06B4B08
:102638009B8845F21032934240F0C780674B4FF4B5
:10264800A0721A80654B4FF4F0725A80BDE0634B5C
:102658009B8845F21052934214D1604B4FF430528C
:102668001A815E4B4FF428525A815C4B4FF42C521E
:102678009A815A4B4FF4F0721A80584B4FF44872B3
:102688005A80A3E0554B9B8841F66312934211D1BF
:10269800524B2C221A81514B2B225A814F4B2A2202
:1026A8009A814E4B4FF4F0721A804C4B4FF448729B
:1026B8005A808BE0494B22221A81484B20225A81AA
:1026C800464B21229A8181E0444B01229A71434B67
:1026D8004FF4A0721A80414BF0225A803F4B9B88DE
:1026E80049F24132934205D03C4B9B8845F2103267
:1026F800934209D1394B2C221A81384B2A225A810C
:10270800364B2B229A814BE0344B9B8846F60402C9
:10271800934209D1314B2C221A81304B2B225A81FA
:102728002E4B2A229A813BE02C4B9B8845F2105273
:10273800934214D1294B4FF430521A81274B4FF44E
:1027480028525A81254B4FF42C529A81234B4FF42F
:1027580048721A80214B4FF4F0725A8020E01F4BC8
:102768009B8841F66312934211D11C4B2C221A818B
:102778001A4B2A225A81194B2B229A81174B4FF454
:1027880048721A80154B4FF4F0725A8008E0134BC8
:1027980022221A81114B21225A81104B20229A8120
:1027A8000E4B9B8846F60402934205D00B4B9B8840
:1027B80045F21032934209D1084B4FF4F0721A8057
:1027C800064B4FF4A0725A8000E000BF0020FFF7CC
:1027D8007FF800BF0837BD4680BD00BF5804002001
:1027E80080B586B000AF904B9B698F4A43F00803D1
:1027F80093618D4B9B6903F008037B607B688A4B70
:102808009B69894A43F010039361874B9B6903F0E6
:1028180010033B603B684FF4F863BB600123FB6027
:1028280001233B6103237B6107F1080319467F48B5
:1028380005F006FD4FF6FF73BB6007F10803194664
:102848007B4805F0FDFC322005F0C2FA012100208A
:10285800FEF72CFD322005F0BBFA0020FEF750FDF4
:1028680003461A46734B9A80724B9B88FE2B0BD9F2
:10287800704B9B884FF6FF72934205D06D4B9B8837
:10288800B3F5134F40F0C880D320FEF783FCFEF762
:10289800C9FCFEF7C7FCFEF7C5FC03461A46654BA4
:1028A8009A80644B9B881B029AB2624B9A80FEF70F
:1028B800B9FC03461A465F4B9B8813439AB25D4B9B
:1028C8009A805C4B9B8849F24132934200F0A48085
:1028D800BF20FEF75FFCFEF7A5FCFEF7A3FCFEF7A2
:1028E800A1FCFEF79FFC03461A46524B9A80514BB7
:1028F8009B881B029AB24F4B9A80FEF793FC0346C3
:102908001A464C4B9B8813439AB24A4B9A80494BC0
:102918009B8846F6040293427ED0D420FEF73AFC08
:10292800FEF780FCFEF77EFCFEF77CFC03461A46A9
:10293800404B9A803F4B9B881B029AB23D4B9A8032
:10294800FEF770FC03461A463A4B9B8813439AB22B
:10295800384B9A80374B9B8845F2103293425BD0B4
:102968004FF45A40FEF716FCFEF75CFC4FF45B4050
:10297800FEF710FCFEF756FC03461A462D4B9A80CC
:102988002C4B9B881B029AB22A4B9A804FF45C40CE
:10299800FEF700FCFEF746FC03461A46254B9B88CB
:1029A80013439AB2234B9A80224B9B88B3F5004F6E
:1029B80003D1204B45F210529A801E4B9B8845F25A
:1029C8001052934228D0A120FEF7E4FBFEF72AFC20
:1029D80003461A46174B9A80FEF724FC03461A460C
:1029E800144B9A80134B9B881B029AB2114B9A8006
:1029F800FEF718FC03461A460E4B9B8813439AB2FF
:102A08000C4B9A800B4B9B8845F26172934203D121
:102A1800084B41F663129A80064B9B8849F2413273
:102A2800934240F01F8107E000100240001001406F
:102A3800000C014058040020CF20FEF7ABFB00201B
:102A4800FEF7CCFBC120FEF7C9FB3020FEF7C6FB22
:102A5800ED20FEF79FFB6420FEF7C0FB0320FEF786
:102A6800BDFB1220FEF7BAFB8120FEF7B7FBE8207A
:102A7800FEF790FB8520FEF7B1FB1020FEF7AEFBBA
:102A88007A20FEF7ABFBCB20FEF784FB3920FEF75C
:102A9800A5FB2C20FEF7A2FB0020FEF79FFB3420AD
:102AA800FEF79CFB0220FEF799FBF720FEF772FB6E
:102AB8002020FEF793FBEA20FEF76CFB0020FEF7D0
:102AC8008DFB0020FEF78AFBC020FEF763FB1B206E
:102AD800FEF784FBC120FEF75DFB0120FEF77EFBBD
:102AE800C520FEF757FB3020FEF778FB3020FEF7B5
:102AF80075FBC720FEF74EFBB720FEF76FFB3620AD
:102B0800FEF748FB4820FEF769FB3A20FEF742FB38
:102B18005520FEF763FBB120FEF73CFB0020FEF7D3
:102B28005DFB1A20FEF75AFBB620FEF733FB0A209E
:102B3800FEF754FBA220FEF751FBF220FEF72AFB1A
:102B48000020FEF74BFB2620FEF724FB0120FEF7B2
:102B580045FBE020FEF71EFB0F20FEF73FFB2A2077
:102B6800FEF73CFB2820FEF739FB0820FEF736FB72
:102B78000E20FEF733FB0820FEF730FB5420FEF74B
:102B88002DFBA920FEF72AFB4320FEF727FB0A208E
:102B9800FEF724FB0F20FEF721FB0020FEF71EFBAB
:102BA8000020FEF71BFB0020FEF718FB0020FEF7B5
:102BB80015FBE120FEF7EEFA0020FEF70FFB1520CB
:102BC800FEF70CFB1720FEF709FB0720FEF706FBB4
:102BD8001120FEF703FB0620FEF700FB2B20FEF773
:102BE800FDFA5620FEF7FAFA3C20FEF7F7FA052020
:102BF800FEF7F4FA1020FEF7F1FA0F20FEF7EEFACE
:102C08003F20FEF7EBFA3F20FEF7E8FA0F20FEF729
:102C1800E5FA2B20FEF7BEFA0020FEF7DFFA0020C7
:102C2800FEF7DCFA0120FEF7D9FA3F20FEF7D6FAC4
:102C38002A20FEF7AFFA0020FEF7D0FA0020FEF7B0
:102C4800CDFA0020FEF7CAFAEF20FEF7C7FA1120E6
:102C5800FEF7A0FA782005F0BBF82920FEF79AFACB
:102C680003F0D8BC584B9B8846F60402934240F0C8
:102C7800AD801120FEF78EFA142005F0A9F8D020B7
:102C8800FEF788FA0720FEF7A9FA4220FEF7A6FA0F
:102C98001D20FEF7A3FAD120FEF77CFA0020FEF7EC
:102CA8009DFA1A20FEF79AFA0920FEF797FAD22021
:102CB800FEF770FA0120FEF791FA2220FEF78EFA4D
:102CC800C020FEF767FA1020FEF788FA3B20FEF7CF
:102CD80085FA0020FEF782FA0220FEF77FFA11201B
:102CE800FEF77CFAC520FEF755FA0320FEF776FAC0
:102CF800C820FEF74FFA0020FEF770FA2520FEF7ED
:102D08006DFA2120FEF76AFA0520FEF767FA00201F
:102D1800FEF764FA0A20FEF761FA6520FEF75EFA0C
:102D28002520FEF75BFA7720FEF758FA5020FEF7C9
:102D380055FA0F20FEF752FA0020FEF74FFAF82056
:102D4800FEF728FA0120FEF749FAFE20FEF722FADC
:102D58000020FEF743FA0220FEF740FA2020FEF793
:102D680019FA3620FEF716FA0820FEF737FA3A2045
:102D7800FEF710FA5520FEF731FA2B20FEF70AFA73
:102D88000020FEF72BFA0020FEF728FA0120FEF7B4
:102D980025FA3F20FEF722FA2A20FEF7FBF9002049
:102DA800FEF71CFA0020FEF719FA0120FEF716FAC2
:102DB800DF20FEF713FA782005F00AF82920FEF73D
:102DC800E9F903F027BC00BF58040020034B9B8897
:102DD80045F21032934240F07C8701E0580400200D
:102DE800ED20FEF7D7F90120FEF7F8F9FE20FEF7EF
:102DF800F5F9EE20FEF7CEF9DE20FEF7EFF92120F7
:102E0800FEF7ECF9F120FEF7C5F90120FEF7E6F927
:102E1800DF20FEF7BFF91020FEF7E0F9C420FEF727
:102E2800B9F98F20FEF7DAF9C620FEF7B3F90020CA
:102E3800FEF7D4F9E220FEF7D1F9E220FEF7CEF949
:102E4800E220FEF7CBF9BF20FEF7A4F9AA20FEF78F
:102E5800C5F9B020FEF79EF90D20FEF7BFF9002056
:102E6800FEF7BCF90D20FEF7B9F90020FEF7B6F918
:102E78001120FEF7B3F90020FEF7B0F91920FEF78C
:102E8800ADF90020FEF7AAF92120FEF7A7F90020E6
:102E9800FEF7A4F92D20FEF7A1F90020FEF79EF910
:102EA8003D20FEF79BF90020FEF798F95D20FEF71C
:102EB80095F90020FEF792F95D20FEF78FF90020C2
:102EC800FEF78CF9B120FEF765F98020FEF786F948
:102ED8000020FEF783F98B20FEF780F90020FEF72B
:102EE8007DF99620FEF77AF90020FEF777F9B220EF
:102EF800FEF750F90020FEF771F90020FEF76EF991
:102F08000220FEF76BF90020FEF768F90320FEF7B0
:102F180065F90020FEF762F9B320FEF73BF90020BF
:102F2800FEF75CF90020FEF759F90020FEF756F984
:102F38000020FEF753F90020FEF750F90020FEF7B5
:102F48004DF90020FEF74AF90020FEF747F9002066
:102F5800FEF744F90020FEF741F90020FEF73EF99C
:102F68000020FEF73BF90020FEF738F90020FEF7B5
:102F780035F90020FEF732F90020FEF72FF900207E
:102F8800FEF72CF90020FEF729F90020FEF726F9B4
:102F98000020FEF723F90020FEF720F90020FEF7B5
:102FA8001DF90020FEF71AF90020FEF717F9B420E2
:102FB800FEF7F0F88B20FEF711F90020FEF70EF966
:102FC8009620FEF70BF90020FEF708F9A120FEF77E
:102FD80005F90020FEF702F9B520FEF7DBF802201C
:102FE800FEF7FCF80020FEF7F9F80320FEF7F6F8E4
:102FF8000020FEF7F3F80420FEF7F0F80020FEF7B3
:10300800EDF8B620FEF7C6F80020FEF7E7F8002036
:10301800FEF7E4F8B720FEF7BDF80020FEF7DEF86B
:103028000020FEF7DBF83F20FEF7D8F80020FEF777
:10303800D5F85E20FEF7D2F80020FEF7CFF864201E
:10304800FEF7CCF80020FEF7C9F88C20FEF7C6F88A
:103058000020FEF7C3F8AC20FEF7C0F80020FEF70A
:10306800BDF8DC20FEF7BAF80020FEF7B7F87020AC
:10307800FEF7B4F80020FEF7B1F89020FEF7AEF89E
:103088000020FEF7ABF8EB20FEF7A8F80020FEF7CB
:10309800A5F8DC20FEF7A2F80020FEF79FF8B8207C
:1030A800FEF778F80020FEF799F80020FEF796F86A
:1030B8000020FEF793F80020FEF790F80020FEF7B6
:1030C8008DF80020FEF78AF80020FEF787F8002028
:1030D800FEF784F8BA20FEF75DF82420FEF77EF8A4
:1030E8000020FEF77BF80020FEF778F80020FEF7B6
:1030F80075F8C120FEF74EF82020FEF76FF8002083
:10310800FEF76CF85420FEF769F80020FEF766F821
:10311800FF20FEF763F80020FEF760F8C220FEF7F4
:1031280039F80A20FEF75AF80020FEF757F804206D
:10313800FEF754F80020FEF751F8C320FEF72AF8EE
:103148003C20FEF74BF80020FEF748F83A20FEF73F
:1031580045F80020FEF742F83920FEF73FF8002036
:10316800FEF73CF83720FEF739F80020FEF736F86E
:103178003C20FEF733F80020FEF730F83620FEF743
:103188002DF80020FEF72AF83220FEF727F8002055
:10319800FEF724F82F20FEF721F80020FEF71EF88E
:1031A8002C20FEF71BF80020FEF718F82920FEF760
:1031B80015F80020FEF712F82620FEF70FF8002079
:1031C800FEF70CF82420FEF709F80020FEF706F8B1
:1031D8002420FEF703F80020FEF700F82320FDF76F
:1031E800FDFF0020FDF7FAFF3C20FDF7F7FF002068
:1031F800FDF7F4FF3620FDF7F1FF0020FDF7EEFFA5
:103208003220FDF7EBFF0020FDF7E8FF2F20FDF748
:10321800E5FF0020FDF7E2FF2C20FDF7DFFF00208F
:10322800FDF7DCFF2920FDF7D9FF0020FDF7D6FFC9
:103238002620FDF7D3FF0020FDF7D0FF2420FDF75F
:10324800CDFF0020FDF7CAFF2420FDF7C7FF0020AF
:10325800FDF7C4FF2320FDF7C1FF0020FDF7BEFFE7
:10326800C420FDF797FF6220FDF7B8FF0020FDF7A7
:10327800B5FF0520FDF7B2FF0020FDF7AFFF842062
:10328800FDF7ACFF0020FDF7A9FFF020FDF7A6FF32
:103298000020FDF7A3FF1820FDF7A0FF0020FDF791
:1032A8009DFFA420FDF79AFF0020FDF797FF182047
:1032B800FDF794FF0020FDF791FF5020FDF78EFFEA
:1032C8000020FDF78BFF0C20FDF788FF0020FDF79D
:1032D80085FF1720FDF782FF0020FDF77FFF95206F
:1032E800FDF77CFF0020FDF779FFF320FDF776FF5F
:1032F8000020FDF773FFE620FDF770FF0020FDF7C3
:103308006DFFC520FDF746FF3220FDF767FF00205F
:10331800FDF764FF4420FDF761FF0020FDF75EFF25
:103328006520FDF75BFF0020FDF758FF7620FDF7CD
:1033380055FF0020FDF752FF8820FDF74FFF0020C2
:10334800FDF74CFFC620FDF725FF2020FDF746FFBF
:103358000020FDF743FF1720FDF740FF0020FDF791
:103368003DFF0120FDF73AFF0020FDF737FFC7209A
:10337800FDF710FF0020FDF731FF0020FDF72EFFBD
:103388000020FDF72BFF0020FDF728FFC820FDF7E0
:1033980001FF0020FDF722FF0020FDF71FFF00209E
:1033A800FDF71CFF0020FDF719FFC920FDF7F2FE0D
:1033B8000020FDF713FF0020FDF710FF0020FDF7A8
:1033C8000DFF0020FDF70AFF0020FDF707FF002092
:1033D800FDF704FF0020FDF701FF0020FDF7FEFECA
:1033E8000020FDF7FBFE0020FDF7F8FE0020FDF7AA
:1033F800F5FE0020FDF7F2FE0020FDF7EFFE0020AD
:10340800FDF7ECFE0020FDF7E9FE0020FDF7E6FEE3
:10341800E020FDF7BFFE1620FDF7E0FE0020FDF7D7
:10342800DDFE1C20FDF7DAFE0020FDF7D7FE212087
:10343800FDF7D4FE0020FDF7D1FE3620FDF7CEFEC5
:103448000020FDF7CBFE4620FDF7C8FE0020FDF763
:10345800C5FE5220FDF7C2FE0020FDF7BFFE642026
:10346800FDF7BCFE0020FDF7B9FE7A20FDF7B6FE99
:103478000020FDF7B3FE8B20FDF7B0FE0020FDF71E
:10348800ADFE9920FDF7AAFE0020FDF7A7FEA820B3
:10349800FDF7A4FE0020FDF7A1FEB920FDF79EFE72
:1034A8000020FDF79BFEC420FDF798FE0020FDF7E5
:1034B80095FECA20FDF792FE0020FDF78FFED22070
:1034C800FDF78CFE0020FDF789FED920FDF786FE6A
:1034D8000020FDF783FEE020FDF780FE0020FDF7C9
:1034E8007DFEF320FDF77AFE0020FDF777FEE12050
:1034F800FDF750FE1620FDF771FE0020FDF76EFE69
:103508001C20FDF76BFE0020FDF768FE2220FDF76A
:1035180065FE0020FDF762FE3620FDF75FFE002005
:10352800FDF75CFE4520FDF759FE0020FDF756FE2D
:103538005220FDF753FE0020FDF750FE6420FDF7F2
:103548004DFE0020FDF74AFE7A20FDF747FE0020D9
:10355800FDF744FE8B20FDF741FE0020FDF73EFEFF
:103568009920FDF73BFE0020FDF738FEA820FDF767
:1035780035FE0020FDF732FEB920FDF72FFE0020B2
:10358800FDF72CFEC420FDF729FE0020FDF726FEDE
:10359800CA20FDF723FE0020FDF720FED220FDF70C
:1035A8001DFE0020FDF71AFED820FDF717FE0020AB
:1035B800FDF714FEE020FDF711FE0020FDF70EFEDA
:1035C800F320FDF70BFE0020FDF708FEE220FDF7D3
:1035D800E1FD0520FDF702FE0020FDF7FFFD0B20B1
:1035E800FDF7FCFD0020FDF7F9FD1B20FDF7F6FDBA
:1035F8000020FDF7F3FD3420FDF7F0FD0020FDF776
:10360800EDFD4420FDF7EAFD0020FDF7E7FD4F2022
:10361800FDF7E4FD0020FDF7E1FD6120FDF7DEFD8B
:103628000020FDF7DBFD7920FDF7D8FD0020FDF730
:10363800D5FD8820FDF7D2FD0020FDF7CFFD9720AE
:10364800FDF7CCFD0020FDF7C9FDA620FDF7C6FD5E
:103658000020FDF7C3FDB720FDF7C0FD0020FDF7F2
:10366800BDFDC220FDF7BAFD0020FDF7B7FDC7205C
:10367800FDF7B4FD0020FDF7B1FDD120FDF7AEFD4B
:103688000020FDF7ABFDD620FDF7A8FD0020FDF7D3
:10369800A5FDDD20FDF7A2FD0020FDF79FFDF3202D
:1036A800FDF79CFD0020FDF799FDE320FDF772FD75
:1036B8000520FDF793FD0020FDF790FD0A20FDF79A
:1036C8008DFD0020FDF78AFD1C20FDF787FD0020F9
:1036D800FDF784FD3320FDF781FD0020FDF77EFD19
:1036E8004420FDF77BFD0020FDF778FD5020FDF715
:1036F80075FD0020FDF772FD6220FDF76FFD0020CB
:10370800FDF76CFD7820FDF769FD0020FDF766FDEB
:103718008820FDF763FD0020FDF760FD9720FDF789
:103728005DFD0020FDF75AFDA620FDF757FD00209E
:10373800FDF754FDB720FDF751FD0020FDF74EFDC4
:10374800C220FDF74BFD0020FDF748FDC720FDF71F
:1037580045FD0020FDF742FDD120FDF73FFD00208B
:10376800FDF73CFDD520FDF739FD0020FDF736FDBE
:10377800DD20FDF733FD0020FDF730FDF320FDF7D8
:103788002DFD0020FDF72AFDE420FDF703FD0120B3
:10379800FDF724FD0020FDF721FD0120FDF71EFDAA
:1037A8000020FDF71BFD0220FDF718FD0020FDF7A6
:1037B80015FD2A20FDF712FD0020FDF70FFD3C2026
:1037C800FDF70CFD0020FDF709FD4B20FDF706FD78
:1037D8000020FDF703FD5D20FDF700FD0020FDF74B
:1037E800FDFC7420FDF7FAFC0020FDF7F7FC8420AF
:1037F800FDF7F4FC0020FDF7F1FC9320FDF7EEFC4B
:103808000020FDF7EBFCA220FDF7E8FC0020FDF707
:10381800E5FCB320FDF7E2FC0020FDF7DFFCBE204D
:10382800FDF7DCFC0020FDF7D9FCC420FDF7D6FC31
:103838000020FDF7D3FCCD20FDF7D0FC0020FDF7DC
:10384800CDFCD320FDF7CAFC0020FDF7C7FCDD2026
:10385800FDF7C4FC0020FDF7C1FCF320FDF7BEFC1A
:103868000020FDF7BBFCE520FDF794FC0020FDF7E8
:10387800B5FC0020FDF7B2FC0020FDF7AFFC0020EE
:10388800FDF7ACFC0220FDF7A9FC0020FDF7A6FC23
:103898002920FDF7A3FC0020FDF7A0FC3C20FDF744
:1038A8009DFC0020FDF79AFC4B20FDF797FC0020BB
:1038B800FDF794FC5D20FDF791FC0020FDF78EFCE0
:1038C8007420FDF78BFC0020FDF788FC8420FDF7B1
:1038D80085FC0020FDF782FC9320FDF77FFC00208B
:1038E800FDF77CFCA220FDF779FC0020FDF776FCB3
:1038F800B320FDF773FC0020FDF770FCBE20FDF738
:103908006DFC0020FDF76AFCC420FDF767FC002071
:10391800FDF764FCCD20FDF761FC0020FDF75EFC9F
:10392800D320FDF75BFC0020FDF758FCDC20FDF7F9
:1039380055FC0020FDF752FCF320FDF74FFC00205A
:10394800FDF74CFCE620FDF725FC1120FDF746FCB1
:103958000020FDF743FC3420FDF740FC0020FDF774
:103968003DFC5620FDF73AFC0020FDF737FC762099
:10397800FDF734FC0020FDF731FC7720FDF72EFC25
:103988000020FDF72BFC6620FDF728FC0020FDF742
:1039980025FC8820FDF722FC0020FDF71FFC99205C
:1039A800FDF71CFC0020FDF719FCBB20FDF716FCF9
:1039B8000020FDF713FC9920FDF710FC0020FDF70F
:1039C8000DFC6620FDF70AFC0020FDF707FC5520DA
:1039D800FDF704FC0020FDF701FC5520FDF7FEFB78
:1039E8000020FDF7FBFB4520FDF7F8FB0020FDF765
:1039F800F5FB4320FDF7F2FB0020FDF7EFFB442029
:103A0800FDF7ECFB0020FDF7E9FBE720FDF7C2FB23
:103A18003220FDF7E3FB0020FDF7E0FB5520FDF722
:103A2800DDFB0020FDF7DAFB7620FDF7D7FB002051
:103A3800FDF7D4FB6620FDF7D1FB0020FDF7CEFB98
:103A48006720FDF7CBFB0020FDF7C8FB6720FDF7DB
:103A5800C5FB0020FDF7C2FB8720FDF7BFFB002058
:103A6800FDF7BCFB9920FDF7B9FB0020FDF7B6FB7D
:103A7800BB20FDF7B3FB0020FDF7B0FB9920FDF755
:103A8800ADFB0020FDF7AAFB7720FDF7A7FB002080
:103A9800FDF7A4FB4420FDF7A1FB0020FDF79EFBEA
:103AA8005620FDF79BFB0020FDF798FB2320FDF730
:103AB80095FB0020FDF792FB3320FDF78FFB0020DC
:103AC800FDF78CFB4520FDF789FB0020FDF786FB01
:103AD800E820FDF75FFB0020FDF780FB0020FDF7E5
:103AE8007DFB9920FDF77AFB0020FDF777FB872007
:103AF800FDF774FB0020FDF771FB8820FDF76EFBD6
:103B08000020FDF76BFB7720FDF768FB0020FDF731
:103B180065FB6620FDF762FB0020FDF75FFB882050
:103B2800FDF75CFB0020FDF759FBAA20FDF756FBCB
:103B38000020FDF753FBBB20FDF750FB0020FDF7ED
:103B48004DFB9920FDF74AFB0020FDF747FB662057
:103B5800FDF744FB0020FDF741FB5520FDF73EFB38
:103B68000020FDF73BFB5520FDF738FB0020FDF753
:103B780035FB4420FDF732FB0020FDF72FFB4420E6
:103B8800FDF72CFB0020FDF729FB5520FDF726FB50
:103B98000020FDF723FBE920FDF7FCFAAA20FDF73A
:103BA8001DFB0020FDF71AFB0020FDF717FB002086
:103BB800FDF714FB0020FDF7EDFAAA20FDF70EFB38
:103BC800CF20FDF7E7FA0020FDF708FB0020FDF7FE
:103BD80005FB0020FDF702FB0020FDF7FFFA00209F
:103BE800FDF7FCFA0020FDF7F9FA0020FDF7F6FAD8
:103BF8000020FDF7F3FA0020FDF7F0FA0020FDF7AA
:103C0800EDFA0020FDF7EAFA0020FDF7E7FA0020B8
:103C1800FDF7E4FA0020FDF7E1FA0020FDF7DEFAEF
:103C28000020FDF7DBFA0020FDF7D8FAF020FDF7B9
:103C3800B1FA0020FDF7D2FA5020FDF7CFFA0020A4
:103C4800FDF7CCFA0020FDF7C9FA0020FDF7C6FA07
:103C5800F320FDF79FFA0020FDF7C0FAF920FDF7E1
:103C680099FA0620FDF7BAFA1020FDF7B7FA2920CD
:103C7800FDF7B4FA0020FDF7B1FA3A20FDF78AFA09
:103C88005520FDF7ABFA1120FDF784FA642004F003
:103C98009FF82920FDF77EFA3520FDF77BFA0020F2
:103CA800FDF79CFA5120FDF775FAFF20FDF796FA0B
:103CB8005320FDF76FFA2C20FDF790FA5520FDF7F9
:103CC80069FA8220FDF78AFA2C20FDF763FA02F0E0
:103CD800A1BC044B9B8845F21052934240F0828766
:103CE80002E000BF5804002055214FF47040FDF752
:103CF800DDFAAA214FF20100FDF7D8FA52214FF25E
:103D08000200FDF7D3FA08214FF20300FDF7CEFABF
:103D180001214FF20400FDF7C9FA0D214FF430409C
:103D2800FDF7C4FA0D214BF20100FDF7BFFA0D2192
:103D38004BF20200FDF7BAFA34214FF43640FDF792
:103D4800B5FA34214BF20160FDF7B0FA34214BF299
:103D58000260FDF7ABFA0D214FF43140FDF7A6FAEA
:103D68000D214BF20110FDF7A1FA0D214BF20210C3
:103D7800FDF79CFA34214FF43740FDF797FA3421C8
:103D88004BF20170FDF792FA34214BF20270FDF705
:103D98008DFA00214FF43240FDF788FA00214BF2EA
:103DA8000120FDF783FA00214BF20220FDF77EFA8D
:103DB80024214FF43840FDF779FA24214BF601000D
:103DC800FDF774FA24214BF60200FDF76FFA012182
:103DD8004FF43F40FDF76AFA0F214FF43340FDF7E7
:103DE80065FA0F214BF20130FDF760FA0F214BF213
:103DF8000230FDF75BFA34214FF43940FDF756FAEB
:103E080034214BF60110FDF751FA34214BF602101C
:103E1800FDF74CFA08214FF43540FDF747FA082121
:103E28004BF20150FDF742FA08214BF20250FDF720
:103E38003DFA03214FF44240FDF738FA24214FF4AC
:103E48003A40FDF733FA24214BF60120FDF72EFA0C
:103E580024214BF60220FDF729FA00214FF43C40BB
:103E6800FDF724FA78214BF60140FDF71FFA0021EF
:103E78004BF60240FDF71AFA00214FF43D40FDF7DA
:103E880015FA78214BF60150FDF710FA00214BF690
:103E98000250FDF70BFA00214FF43E40FDF706FAF9
:103EA80064214BF60160FDF701FA00214FF45140FF
:103EB800FDF7FCF933214DF20110FDF7F7F9002168
:103EC8004DF20210FDF7F2F934214DF20310FDF71F
:103ED800EDF900214DF20410FDF7E8F93A214DF211
:103EE8000510FDF7E3F900214DF20610FDF7DEF9A4
:103EF8004A214DF20710FDF7D9F900214DF20810BB
:103F0800FDF7D4F95C214DF20910FDF7CFF9002136
:103F18004DF20A10FDF7CAF981214DF20B10FDF799
:103F2800C5F900214DF20C10FDF7C0F9A6214DF29C
:103F38000D10FDF7BBF900214DF20E10FDF7B6F993
:103F4800E5214DF20F10FDF7B1F901214DF21010E6
:103F5800FDF7ACF913214DF21110FDF7A7F9012176
:103F68004DF21210FDF7A2F954214DF21310FDF78E
:103F78009DF901214DF21410FDF798F982214DF2B7
:103F88001510FDF793F901214DF21610FDF78EF982
:103F9800CA214DF21710FDF789F902214DF21810C8
:103FA800FDF784F900214DF21910FDF77FF9022180
:103FB8004DF21A10FDF77AF901214DF21B10FDF7A9
:103FC80075F902214DF21C10FDF770F934214DF2FC
:103FD8001D10FDF76BF902214DF21E10FDF766F971
:103FE80067214DF21F10FDF761F902214DF22010F3
:103FF800FDF75CF984214DF22110FDF757F90221F4
:104008004DF22210FDF752F9A4214DF22310FDF7CD
:104018004DF902214DF22410FDF748F9B7214DF270
:104028002510FDF743F902214DF22610FDF73EF960
:10403800CF214DF22710FDF739F902214DF2281052
:10404800FDF734F9DE214DF22910FDF72FF9022191
:104058004DF22A10FDF72AF9F2214DF22B10FDF747
:1040680025F902214DF22C10FDF720F9FE214DF221
:104078002D10FDF71BF903214DF22E10FDF716F94F
:1040880010214DF22F10FDF711F903214DF23010D8
:10409800FDF70CF933214DF23110FDF707F9032133
:1040A8004DF23210FDF702F96D214DF23310FDF794
:1040B800FDF800214FF45240FDF7F8F833214DF296
:1040C8000120FDF7F3F800214DF20220FDF7EEF88C
:1040D80034214DF20320FDF7E9F800214DF20420C8
:1040E800FDF7E4F83A214DF20520FDF7DFF800214D
:1040F8004DF20620FDF7DAF84A214DF20720FDF7C8
:10410800D5F800214DF20820FDF7D0F85C214DF2DA
:104118000920FDF7CBF800214DF20A20FDF7C6F87B
:1041280081214DF20B20FDF7C1F800214DF20C2042
:10413800FDF7BCF8A6214DF20D20FDF7B7F80021D8
:104148004DF20E20FDF7B2F8E5214DF20F20FDF7F4
:10415800ADF801214DF21020FDF7A8F813214DF21A
:104168001120FDF7A3F801214DF21220FDF79EF86A
:1041780054214DF21320FDF799F801214DF2142036
:10418800FDF794F882214DF21520FDF78FF80121F3
:104198004DF21620FDF78AF8CA214DF21720FDF7D7
:1041A80085F802214DF21820FDF780F800214DF224
:1041B8001920FDF77BF802214DF21A20FDF776F859
:1041C80001214DF21B20FDF771F802214DF21C2050
:1041D800FDF76CF834214DF21D20FDF767F8022138
:1041E8004DF21E20FDF762F867214DF21F20FDF702
:1041F8005DF802214DF22020FDF758F884214DF298
:104208002120FDF753F802214DF22220FDF74EF848
:10421800A4214DF22320FDF749F802214DF2242074
:10422800FDF744F8B7214DF22520FDF73FF80221AC
:104238004DF22620FDF73AF8CF214DF22720FDF761
:1042480035F802214DF22820FDF730F8DE214DF235
:104258002920FDF72BF802214DF22A20FDF726F838
:10426800F2214DF22B20FDF721F802214DF22C20EE
:10427800FDF71CF8FE214DF22D20FDF717F803215C
:104288004DF22E20FDF712F810214DF22F20FDF7E8
:104298000DF803214DF23020FDF708F833214DF2D7
:1042A8003120FDF703F803214DF23220FCF7FEFF21
:1042B8006D214DF23320FCF7F9FF00214FF45340F4
:1042C800FCF7F4FF33214DF20130FCF7EFFF00213A
:1042D8004DF20230FCF7EAFF34214DF20330FCF7CF
:1042E800E5FF00214DF20430FCF7E0FF3A214DF2E2
:1042F8000530FCF7DBFF00214DF20630FCF7D6FF56
:104308004A214DF20730FCF7D1FF00214DF2083069
:10431800FCF7CCFF5C214DF20930FCF7C7FF002108
:104328004DF20A30FCF7C2FF81214DF20B30FCF749
:10433800BDFF00214DF20C30FCF7B8FFA6214DF26D
:104348000D30FCF7B3FF00214DF20E30FCF7AEFF45
:10435800E5214DF20F30FCF7A9FF01214DF2103095
:10436800FCF7A4FF13214DF21130FCF79FFF012148
:104378004DF21230FCF79AFF54214DF21330FCF73E
:1043880095FF01214DF21430FCF790FF82214DF288
:104398001530FCF78BFF01214DF21630FCF786FF34
:1043A800CA214DF21730FCF781FF02214DF2183077
:1043B800FCF77CFF00214DF21930FCF777FF022152
:1043C8004DF21A30FCF772FF01214DF21B30FCF759
:1043D8006DFF02214DF21C30FCF768FF34214DF2CD
:1043E8001D30FCF763FF02214DF21E30FCF75EFF23
:1043F80067214DF21F30FCF759FF02214DF22030A2
:10440800FCF754FF84214DF22130FCF74FFF0221C5
:104418004DF22230FCF74AFFA4214DF22330FCF77D
:1044280045FF02214DF22430FCF740FFB7214DF241
:104438002530FCF73BFF02214DF22630FCF736FF12
:10444800CF214DF22730FCF731FF02214DF2283001
:10445800FCF72CFFDE214DF22930FCF727FF022163
:104468004DF22A30FCF722FFF2214DF22B30FCF7F7
:104478001DFF02214DF22C30FCF718FFFE214DF2F2
:104488002D30FCF713FF03214DF22E30FCF70EFF01
:1044980010214DF22F30FCF709FF03214DF2303087
:1044A800FCF704FF33214DF23130FCF7FFFE032106
:1044B8004DF23230FCF7FAFE6D214DF23330FCF745
:1044C800F5FE00214FF45440FCF7F0FE33214DF285
:1044D8000140FCF7EBFE00214DF20240FCF7E6FE3E
:1044E80034214DF20340FCF7E1FE00214DF2044077
:1044F800FCF7DCFE3A214DF20540FCF7D7FE00211F
:104508004DF20640FCF7D2FE4A214DF20740FCF777
:10451800CDFE00214DF20840FCF7C8FE5C214DF2AB
:104528000940FCF7C3FE00214DF20A40FCF7BEFE2D
:1045380081214DF20B40FCF7B9FE00214DF20C40F1
:10454800FCF7B4FEA6214DF20D40FCF7AFFE0021AA
:104558004DF20E40FCF7AAFEE5214DF20F40FCF7A4
:10456800A5FE01214DF21040FCF7A0FE13214DF2EB
:104578001140FCF79BFE01214DF21240FCF796FE1C
:1045880054214DF21340FCF791FE01214DF21440E5
:10459800FCF78CFE82214DF21540FCF787FE0121C5
:1045A8004DF21640FCF782FECA214DF21740FCF787
:1045B8007DFE02214DF21840FCF778FE00214DF2F5
:1045C8001940FCF773FE02214DF21A40FCF76EFE0B
:1045D80001214DF21B40FCF769FE02214DF21C40FF
:1045E800FCF764FE34214DF21D40FCF75FFE02210A
:1045F8004DF21E40FCF75AFE67214DF21F40FCF7B2
:1046080055FE02214DF22040FCF750FE84214DF268
:104618002140FCF74BFE02214DF22240FCF746FEFA
:10462800A4214DF22340FCF741FE02214DF2244023
:10463800FCF73CFEB7214DF22540FCF737FE02217E
:104648004DF22640FCF732FECF214DF22740FCF711
:104658002DFE02214DF22840FCF728FEDE214DF206
:104668002940FCF723FE02214DF22A40FCF71EFEEA
:10467800F2214DF22B40FCF719FE02214DF22C409D
:10468800FCF714FEFE214DF22D40FCF70FFE03212E
:104698004DF22E40FCF70AFE10214DF22F40FCF798
:1046A80005FE03214DF23040FCF700FE33214DF2A8
:1046B8003140FCF7FBFD03214DF23240FCF7F6FDDB
:1046C8006D214DF23340FCF7F1FD00214FF45540C8
:1046D800FCF7ECFD33214DF20150FCF7E7FD00211A
:1046E8004DF20250FCF7E2FD34214DF20350FCF785
:1046F800DDFD00214DF20450FCF7D8FD3A214DF2C2
:104708000550FCF7D3FD00214DF20650FCF7CEFD15
:104718004A214DF20750FCF7C9FD00214DF208501F
:10472800FCF7C4FD5C214DF20950FCF7BFFD0021E8
:104738004DF20A50FCF7BAFD81214DF20B50FCF7FF
:10474800B5FD00214DF20C50FCF7B0FDA6214DF24D
:104758000D50FCF7ABFD00214DF20E50FCF7A6FD05
:10476800E5214DF20F50FCF7A1FD01214DF210504B
:10477800FCF79CFD13214DF21150FCF797FD012128
:104788004DF21250FCF792FD54214DF21350FCF7F4
:104798008DFD01214DF21450FCF788FD82214DF268
:1047A8001550FCF783FD01214DF21650FCF77EFDF4
:1047B800CA214DF21750FCF779FD02214DF218502D
:1047C800FCF774FD00214DF21950FCF76FFD022132
:1047D8004DF21A50FCF76AFD01214DF21B50FCF70F
:1047E80065FD02214DF21C50FCF760FD34214DF2AD
:1047F8001D50FCF75BFD02214DF21E50FCF756FDE3
:1048080067214DF21F50FCF751FD02214DF2205057
:10481800FCF74CFD84214DF22150FCF747FD0221A5
:104828004DF22250FCF742FDA4214DF22350FCF733
:104838003DFD02214DF22450FCF738FDB7214DF221
:104848002550FCF733FD02214DF22650FCF72EFDD2
:10485800CF214DF22750FCF729FD02214DF22850B7
:10486800FCF724FDDE214DF22950FCF71FFD022143
:104878004DF22A50FCF71AFDF2214DF22B50FCF7AD
:1048880015FD02214DF22C50FCF710FDFE214DF2D2
:104898002D50FCF70BFD03214DF22E50FCF706FDC1
:1048A80010214DF22F50FCF701FD03214DF230503D
:1048B800FCF7FCFC33214DF23150FCF7F7FC0321E7
:1048C8004DF23250FCF7F2FC6D214DF23350FCF7FB
:1048D800EDFC00214FF45640FCF7E8FC33214DF283
:1048E8000160FCF7E3FC00214DF20260FCF7DEFCFE
:1048F80034214DF20360FCF7D9FC00214DF204602D
:10490800FCF7D4FC3A214DF20560FCF7CFFC0021FE
:104918004DF20660FCF7CAFC4A214DF20760FCF72D
:10492800C5FC00214DF20860FCF7C0FC5C214DF28B
:104938000960FCF7BBFC00214DF20A60FCF7B6FCED
:1049480081214DF20B60FCF7B1FC00214DF20C60A7
:10495800FCF7ACFCA6214DF20D60FCF7A7FC00218A
:104968004DF20E60FCF7A2FCE5214DF20F60FCF75A
:104978009DFC01214DF21060FCF798FC13214DF2CB
:104988001160FCF793FC01214DF21260FCF78EFCDC
:1049980054214DF21360FCF789FC01214DF214609B
:1049A800FCF784FC82214DF21560FCF77FFC0121A5
:1049B8004DF21660FCF77AFCCA214DF21760FCF73D
:1049C80075FC02214DF21860FCF770FC00214DF2D5
:1049D8001960FCF76BFC02214DF21A60FCF766FCCB
:1049E80001214DF21B60FCF761FC02214DF21C60B5
:1049F800FCF75CFC34214DF21D60FCF757FC0221EA
:104A08004DF21E60FCF752FC67214DF21F60FCF767
:104A18004DFC02214DF22060FCF748FC84214DF248
:104A28002160FCF743FC02214DF22260FCF73EFCBA
:104A3800A4214DF22360FCF739FC02214DF22460D9
:104A4800FCF734FCB7214DF22560FCF72FFC02215E
:104A58004DF22660FCF72AFCCF214DF22760FCF7C7
:104A680025FC02214DF22860FCF720FCDE214DF2E6
:104A78002960FCF71BFC02214DF22A60FCF716FCAA
:104A8800F2214DF22B60FCF711FC02214DF22C6053
:104A9800FCF70CFCFE214DF22D60FCF707FC03210E
:104AA8004DF22E60FCF702FC10214DF22F60FCF74E
:104AB800FDFB03214DF23060FCF7F8FB33214DF28A
:104AC8003160FCF7F3FB03214DF23260FCF7EEFB9B
:104AD8006D214DF23360FCF7E9FB55214FF470402E
:104AE800FCF7E4FBAA214FF20100FCF7DFFB52219F
:104AF8004FF20200FCF7DAFB08214FF20300FCF743
:104B0800D5FB00214FF20400FCF7D0FBCC214FF479
:104B18003140FCF7CBFB00214BF20110FCF7C6FB40
:104B280005214FF43640FCF7C1FB70214FF43740A4
:104B3800FCF7BCFB70214BF20170FCF7B7FB0121BD
:104B48004FF43840FCF7B2FB03214BF60100FCF7A9
:104B5800ADFB03214BF60200FCF7A8FB03214BF643
:104B68000300FCF7A3FB02214FF43C40FCF79EFB3B
:104B780000214BF60140FCF799FB00214BF602405F
:104B8800FCF794FBD0214FF44940FCF78FFB02213E
:104B98004CF60110FCF78AFB50214CF60210FCF78A
:104BA80085FB50214CF60310FCF780FB50214CF696
:104BB8000410FCF77BFB00214FF45450FCF776FB04
:104BC80055214FF46850FCF771FB4FF48850FCF7FF
:104BD800E1FA012003F0FCF84FF42450FCF7DAFA6C
:104BE80001F018BDEC4B9B8849F22532934240F006
:104BF800D78047F6F001E520FCF758FB4FF48071A9
:104C08000120FCF753FB4FF4E0610220FCF74EFB58
:104C180041F230010320FCF749FB00210420FCF796
:104C280045FB40F202210820FCF740FB0021092047
:104C3800FCF73CFB00210A20FCF738FB00210C2084
:104C4800FCF734FB00210D20FCF730FB00210F207E
:104C5800FCF72CFB00211020FCF728FB0721112072
:104C6800FCF724FB00211220FCF720FB0021132075
:104C7800FCF71CFB00210720FCF718FB41F29061B0
:104C88001020FCF713FB40F227211120FCF70EFB44
:104C98009D211220FCF70AFB4FF4C8511320FCF7A2
:104CA80005FB25212920FCF701FB0D212B20FCF712
:104CB800FDFA07213020FCF7F9FA40F203313120E0
:104CC800FCF7F4FA03213220FCF7F0FA40F206214F
:104CD8003520FCF7EBFA08213620FCF7E7FA40F21A
:104CE80006413720FCF7E2FA4FF441713820FCF70F
:104CF800DDFA07213920FCF7D9FA40F202613C209D
:104D0800FCF7D4FA08213D20FCF7D0FA0021502006
:104D1800FCF7CCFAEF215120FCF7C8FA0021522009
:104D2800FCF7C4FA40F23F115320FCF7BFFA4FF4E6
:104D380027416020FCF7BAFA01216120FCF7B6FA96
:104D480000216A20FCF7B2FA00218020FCF7AEFAB5
:104D580000218120FCF7AAFA00218220FCF7A6FA9C
:104D680000218320FCF7A2FA00218420FCF79EFA98
:104D780000218520FCF79AFA10219020FCF796FA7A
:104D88004FF4C0619220FCF791FA40F233110720EA
:104D9800FCF78CFA22210020FCF788FA01F03ABCD3
:104DA8007D4B9B8849F22832934240F0F78041F2CC
:104DB8008F01EC20FCF77AFA41F23421EF20FCF75E
:104DC80075FA4FF480710120FCF770FA4FF4E06136
:104DD8000220FCF76BFA41F230010320FCF766FA77
:104DE80000210420FCF762FA40F202210820FCF7B7
:104DF8005DFA00210920FCF759FA00210A20FCF786
:104E080055FA01210C20FCF751FA00210D20FCF77E
:104E18004DFA00210F20FCF749FA00211020FCF779
:104E280045FA07211120FCF741FA00211220FCF76E
:104E38003DFA00211320FCF739FA01210720FCF77D
:104E480035FA322002F0C4FF41F290411020FCF7FD
:104E58002DFA40F227211120FCF728FA322002F01F
:104E6800B7FF8A211220FCF721FA322002F0B0FFA6
:104E78004FF4D0511320FCF719FA06212920FCF72A
:104E880015FA0D212B20FCF711FA322002F0A0FFB1
:104E980000212020FCF70AFA00212120FCF706FA5D
:104EA800322002F095FF00213020FCF7FFF940F294
:104EB80004613120FCF7FAF940F205313220FCF7A1
:104EC800F5F900213520FCF7F1F940F609413620C3
:104ED800FCF7ECF94FF401713720FCF7E7F940F2E1
:104EE80001313820FCF7E2F940F207713920FCF76C
:104EF800DDF900213C20FCF7D9F940F60A213D20D4
:104F0800FCF7D4F9322002F063FF00215020FCF7AF
:104F1800CDF9EF215120FCF7C9F900215220FCF707
:104F2800C5F940F23F115320FCF7C0F94FF427416F
:104F38006020FCF7BBF901216120FCF7B7F90021DB
:104F48006A20FCF7B3F900218020FCF7AFF90021B3
:104F58008120FCF7ABF900218220FCF7A7F900219A
:104F68008320FCF7A3F900218420FCF79FF9002196
:104F78008520FCF79BF910219020FCF797F94FF456
:104F8800C0619220FCF792F940F233110720FCF738
:104F98008DF901F03FBB00BF58040020CE4B9B8821
:104FA80049F22032934240F0AD8000210020FCF706
:104FB8007DF94FF480710120FCF778F94FF4E06136
:104FC8000220FCF773F941F230010320FCF76EF977
:104FD80000210420FCF76AF940F202210820FCF7BE
:104FE80065F900210920FCF761F900210A20FCF786
:104FF8005DF901210C20FCF759F900210D20FCF77F
:1050080055F900210F20FCF751F9322002F0E0FE9B
:1050180040F201110720FCF749F9322002F0D8FECE
:105028004FF486511020FCF741F907211120FCF7B5
:105038003DF94FF488711220FCF738F94FF43061CC
:105048001320FCF733F900212920FCF72FF944F24B
:1050580010012B20FCF72AF900215020FCF726F933
:10506800EF215120FCF722F900215220FCF71EF90C
:1050780040F23F115320FCF719F94FF41C516020FE
:10508800FCF714F901216120FCF710F900216A20CE
:10509800FCF70CF900218020FCF708F90021812099
:1050A800FCF704F900218220FCF700F90021832095
:1050B800FCF7FCF800218420FCF7F8F80021852093
:1050C800FCF7F4F810219020FCF7F0F8002192206A
:1050D800FCF7ECF801219320FCF7E8F84FF488710D
:1050E8009520FCF7E3F800219720FCF7DFF8002172
:1050F8009820FCF7DBF840F273110720FCF7D6F88C
:1051080001F088BA744B9B8849F23132934240F0DF
:10511800E58041F21401E720FCF7C8F84FF48071EC
:105128000120FCF7C3F84FF400710220FCF7BEF829
:1051380041F238010320FCF7B9F840F202210820B7
:10514800FCF7B4F800210920FCF7B0F800210A2088
:10515800FCF7ACF800210C20FCF7A8F800210D2082
:10516800FCF7A4F800210F20FCF7A0F8002110207C
:10517800FCF79CF807211120FCF798F80021122071
:10518800FCF794F800211320FCF790F8C82002F0EF
:105198001FFE41F290611020FCF788F840F22721A9
:1051A8001120FCF783F8322002F012FE0C211220A5
:1051B800FCF77CF8322002F00BFE4FF4006113205C
:1051C800FCF774F811212920FCF770F80B212B202B
:1051D800FCF76CF8322002F0FBFD00212020FCF7E0
:1051E80065F840F23F112120FCF760F800213020DB
:1051F800FCF75CF84FF483713120FCF757F8002175
:105208003220FCF753F84FF401713520FCF74EF8C3
:1052180041F20A613620FCF749F840F2077137205D
:10522800FCF744F84FF483713820FCF73FF840F25C
:1052380007713920FCF73AF840F202413C20FCF7AC
:1052480035F840F60F413D20FCF730F8002150209A
:10525800FCF72CF8EF215120FCF728F80021522008
:10526800FCF724F840F23F115320FCF71FF84FF4E5
:105278001C516020FCF71AF801216120FCF716F890
:1052880000216A20FCF712F800218020FCF70EF8B4
:1052980000218120FCF70AF800218220FCF706F89B
:1052A80000218320FCF702F800218420FBF7FEFF91
:1052B80000218520FBF7FAFF10219020FBF7F6FF6D
:1052C8004FF4C0619220FBF7F1FF40F23311072041
:1052D800FBF7ECFF01F09EB958040020E24B9B88D5
:1052E80045F20842934240F0A3804FF480710120B8
:1052F800FBF7DCFF4FF4E0610220FBF7D7FF41F238
:1053080030010320FBF7D2FF00210420FBF7CEFF7A
:1053180040F207210820FBF7C9FF00210920FBF70D
:10532800C5FF00210A20FBF7C1FF00210C20FBF775
:10533800BDFF00210D20FBF7B9FF00210F20FBF76F
:10534800B5FF142002F044FD41F2B0611020FBF7D4
:10535800ADFF01211120FBF7A9FF01211720FBF761
:10536800A5FF4FF49C711220FBF7A0FF4FF40061DA
:105378001320FBF79BFF09212920FBF797FF092141
:105388002A20FBF793FF0021A420FBF78FFF0021C1
:105398005020FBF78BFFEF215120FBF787FF0021FF
:1053A8005220FBF783FF40F23F115320FBF77EFFAB
:1053B8004FF41C516020FBF779FF01216120FBF7B6
:1053C80075FF00216A20FBF771FF00218020FBF7A1
:1053D8006DFF00218120FBF769FF00218220FBF788
:1053E80065FF00218320FBF761FF00218420FBF784
:1053F8005DFF00218520FBF759FF13219020FBF763
:1054080055FF00219220FBF751FF03219320FBF762
:105418004DFF4FF488719520FBF748FF40F2731158
:105428000720FBF743FF322002F0D2FC01F0F2B86C
:105438008D4B9B8841F20552934240F01781002121
:105448000720FBF733FF322002F0C2FC4FF48E71C5
:105458001220FBF72BFF0121A420FBF727FF0F21C8
:105468000820FBF723FF08210A20FBF71FFF08216C
:105478000D20FBF71BFF40F207713020FBF716FFEA
:1054880007213120FBF712FF40F203613220FBF7BE
:105498000DFF4FF4E0613320FBF708FF40F20221D3
:1054A8003420FBF703FF02213520FBF7FFFE41F60E
:1054B8000F713620FBF7FAFE40F207713720FBF731
:1054C800F5FE00213820FBF7F1FE00213920FBF71B
:1054D800EDFE40F207713A20FBF7E8FE00213B2081
:1054E800FBF7E4FE07213C20FBF7E0FE00213D200E
:1054F800FBF7DCFE322002F06BFC01210720FBF7F2
:10550800D5FE01211720FBF7D1FE322002F060FC06
:105518004FF4BD511020FBF7C9FE40F217211120AE
:10552800FBF7C4FE4FF48F711220FBF7BFFE4FF458
:1055380070611320FBF7BAFE00212A20FBF7B6FEA4
:105548000A212920FBF7B2FE4FF49F711220FBF7C6
:10555800ADFE00215020FBF7A9FEEF215120FBF7FB
:10556800A5FE00215220FBF7A1FE40F23F11532077
:10557800FBF79CFE4FF41C516020FBF797FE0121BE
:105588006120FBF793FE00216A20FBF78FFE0021C4
:105598008020FBF78BFE00218120FBF787FE00218E
:1055A8008220FBF783FE00218320FBF77FFE00218A
:1055B8008420FBF77BFE00218520FBF777FE132173
:1055C8009020FBF773FE4FF440719220FBF76EFEBC
:1055D80005219320FBF76AFE00219520FBF766FE64
:1055E80000219720FBF762FE00219820FBF75EFE62
:1055F8004FF480710120FBF759FE4FF4E06102205F
:10560800FBF754FE41F238010320FBF74FFE00215F
:105618000420FBF74BFE00210C20FBF747FE00217E
:105628000F20FBF743FE00212020FBF73FFE00215F
:105638002120FBF73BFE21210720FBF737FE142032
:1056480002F0C6FB61210720FBF730FE142002F0B0
:10565800BFFB40F273110720FBF728FE142002F06D
:10566800B7FB00F0D7BF00BF58040020F04B9B8861
:105678004BF20552934240F0038100210020FBF7D2
:1056880015FE00210020FBF711FE00210020FBF78A
:105698000DFE00210020FBF709FE0121A420FBF7E5
:1056A80005FE142002F094FB4FF41C516020FBF718
:1056B800FDFD40F202210820FBF7F8FD4FF40571CB
:1056C8003020FBF7F3FD43F215713120FBF7EEFDB7
:1056D80040F204613220FBF7E9FD40F61661332001
:1056E800FBF7E4FD42F211213420FBF7DFFD4FF414
:1056F800A8513520FBF7DAFD48F207513620FBF7B1
:10570800D5FD41F207413720FBF7D0FD41F20341B7
:105718003820FBF7CBFD20213920FBF7C7FD1A21E4
:105728009020FBF7C3FD00211020FBF7BFFD0721E8
:105738001120FBF7BBFD00211220FBF7B7FD00216C
:105748001320FBF7B3FD142002F042FB4FF4E6618F
:105758001020FBF7ABFD40F237111120FBF7A6FD37
:10576800142002F035FB4FF4DC711220FBF79EFD8C
:10577800142002F02DFB4FF470611320FBF796FD07
:1057880080212A20FBF792FD48212920FBF78EFD76
:10579800142002F01DFB4FF480710120FBF786FDF9
:1057A8004FF4E0610220FBF781FD41F2380103204C
:1057B800FBF77CFD40F202210820FBF777FD002172
:1057C8000A20FBF773FD00210C20FBF76FFD002179
:1057D8000D20FBF76BFD30210E20FBF767FD002144
:1057E8005020FBF763FDEF215120FBF75FFD0021FF
:1057F8005220FBF75BFD40F23F115320FBF756FDAB
:105808004FF41C516020FBF751FD01216120FBF78B
:105818004DFD00216A20FBF749FD11219020FBF77F
:1058280045FD4FF4C0619220FBF740FD40F2024174
:105838009320FBF73BFD02219420FBF737FD142052
:1058480002F0C6FA01210720FBF730FD142002F010
:10585800BFFA61210720FBF729FD40F273110720E9
:10586800FBF724FD00212020FBF720FD002121204B
:10587800FBF71CFD22210020FBF718FD00F0CABE33
:105888006B4B9B884CF20552934240F0D380002129
:105898000020FBF70BFD00210020FBF707FD14207B
:1058A80002F096FA00210020FBF700FD00210020FD
:1058B800FBF7FCFC00210020FBF7F8FC002100208E
:1058C800FBF7F4FC0121A420FBF7F0FC142002F004
:1058D8007FFA4FF41C516020FBF7E8FC40F6060104
:1058E8000820FBF7E3FC40F203713020FBF7DEFCF5
:1058F80001213120FBF7DAFC04213220FBF7D6FC2A
:105908004FF481713320FBF7D1FC4FF44071342000
:10591800FBF7CCFC40F203113520FBF7C7FC1F2135
:105928003620FBF7C3FC40F203713720FBF7BEFCBF
:1059380001213820FBF7BAFC04213920FBF7B6FC1B
:1059480015219020FBF7B2FC4FF482611020FBF781
:10595800ADFC40F247211120FBF7A8FC4FF4DE71A3
:105968001220FBF7A3FC4FF460611320FBF79EFCA9
:10597800782002F02DFA4FF480710120FBF796FC95
:105988004FF400710220FBF791FC41F23001032033
:10599800FBF78CFC08210A20FBF788FC00210C206F
:1059A800FBF784FC20210E20FBF780FC00210F2050
:1059B800FBF77CFC00212020FBF778FC002121204C
:1059C800FBF774FC3D212A20FBF770FC142002F041
:1059D800FFF92D212920FBF769FC00215020FBF756
:1059E80065FC4DF2EF015120FBF760FC00215220CD
:1059F800FBF75CFC40F23F115320FBF757FC0021FA
:105A08006120FBF753FC00216A20FBF74FFC4FF4A1
:105A180040719220FBF74AFC05219320FBF746FCD6
:105A28004FF480710720FBF741FC00F0F3BD00BF85
:105A380058040020C24B9B8848F68912934240F0D4
:105A4800BC8001210020FBF731FC4AF6A4010320A9
:105A5800FBF72CFC00210C20FBF728FC40F60C017E
:105A68000D20FBF723FC4FF42C510E20FBF71EFCF6
:105A7800B0211E20FBF71AFC42F63F310120FBF74C
:105A880015FC4FF4C0610220FBF710FC0021102028
:105A9800FBF70CFC46F278011120FBF707FC00210C
:105AA8000520FBF703FC00210620FBF7FFFB4EF661
:105AB8001C711620FBF7FAFB03211720FBF7F6FBF6
:105AC80040F233210720FBF7F1FB00210B20FBF705
